:020000040000FA
:10000000000000EB250000EB2C008FE2000C90E8D4
:1000100000A08AE000B08BE001704AE20B005AE1D8
:100020000000001A1D0000EB0F00BAE818E04FE2D4
:10003000010013E303F0471013FF2FE1E801000074
:10004000F80100000030B0E30040B0E30050B0E33E
:100050000060B0E3102052E27800A128FCFFFF8A84
:10006000822EB0E13000A128003081451EFF2FE133
:1000700001C08FE21CFF2FE11FB500F0CFF80598FB
:1000800086460FBC009C02B07047000001C08FE2A2
:100090001CFF2FE130B47546AE4630BC70470000FF
:1000A000380000EB0210A0E1F0FFFFEB1CC09FE561
:1000B0000FC08CE001001CE30DE08F120FE0A001E7
:1000C0001CFF2FE101C08FE21CFF2FE100F08CF834
:1000D000640000007847C046EBFFFFEB470000EBF1
:1000E0000C009FE50C109FE504209FE508309FE57C
:1000F0001EFF2FE1600000406004004060000040EF
:100100000010A0E3000000EA011081E264009FE516
:10011000000051E1FBFFFF3A1EFF2FE104E02DE557
:1001200054009FE5080090E5010880E3FF0080E3AC
:1001300044109FE5080081E50D0000EA38009FE5C6
:10014000040090E5010880E3FF0080E328109FE5AC
:10015000040081E5E9FFFFEB1C009FE50C0090E542
:10016000010880E3FF0080E30C109FE50C0081E5AF
:10017000E2FFFFEBF0FFFFEA400D0300008002E02A
:1001800070477047704700000E50A0E1180000EB68
:1001900005E0A0E10050B0E10D10A0E10A30A0E1BF
:1001A0000700C0E300D0A0E160D08DE220402DE93F
:1001B000CAFFFFEB2040BDE80060A0E30070A0E3B1
:1001C0000080A0E300B0A0E30710C1E305C0A0E1F8
:1001D000C009ACE8C009ACE8C009ACE8C009ACE8AB
:1001E00001D0A0E11EFF2FE10400C046C046200060
:1001F000FFF770FF00009FE51EFF2FE100000040A9
:100200000C109FE51800A0E3563412EF1EFF2FE1FB
:1002100008000000260002001EFF2FE17847C046BC
:100220001EFF2FE13402000000000040E80400003F
:040230004400000086
:0400000500000000F7
:00000001FF
